:03000000020334C4
:0C033400787FE4F6D8FD75814002037B61
:10057700012E00013D00013F00013E00010800017E
:100587002B000439080402010A2FC0F9A4B099927C
:0405970082F88090D6
:03001B000203C01D
:1003C000C0E0C0F0C083C082C0D075D000C000C003
:1003D00001C002C003C004C005C006C007758B671A
:1003E000758DFCE52A152AAE29700215294E703448
:1003F000752927752A10E5087028F53D853D2E12D0
:100400000507E53D25E025E02409F81202D3053D66
:10041000E53DC3940840E5E53DB40803753D00752E
:100420000801D2A7D007D006D005D004D003D0024F
:0F043000D001D000D0D0D082D083D0F0D0E03235
:03000B00020541AA
:10054100C0E0C0D075D000C006758A67758CFCE527
:100551002D152DAE2C7002152C4E7013752C0775B0
:100561002DD0752B01053DE53DB40803753D00D047
:0605710006D0D0D0E032FC
:1005C000D3EF9400EE6480948040147D6E7C00ED47
:0F05D0001D70011CED4C70F7EF1F70E41E80E1F1
:0105DF0022F9
:080003007580FFD2A5C2A32203
:1005070053A0F8E52E42A0D2A37F021205AFC2A3E3
:100517007F021205AF30A5FDAF807E00AD077C00DE
:10052700E41201C97B007A40799C784512001EE4E9
:09053700FBFA797F7843120127D9
:010540002298
:10059C001202837C007D0A120283742F2DF8E6F57B
:0305AC00907F0A33
:1005AF00E4FEEEC39F5009E4FD0DBD0CFC0E80F27E
:0105BF002219
:06043F00E52B6401706171
:10044500E53D25E025E02409F81202C7120202ABBA
:1004550007AA06D2B07430253D1205A9C2B0759021
:10046500FFD2B17C037DE8AF03AE02120283742F85
:100475002FF8E6547F1205AB7590FFC2B1D2B27C5E
:10048500007D64AF03AE0212059C7590FFC2B2D227
:10049500B3AE02AF037C007D0A12059C7590FFC2C6
:0104A500B3A3
:0104A6002233
:1004A700758911758B67758DFCD28ED2AB758A678E
:1004B700758CFCD28CD2A9D2AFE4F529F52AF52C9C
:1004C700F52DC2A712000312043FE53DB408F8C298
:1004D700A7E4F53DF508F53FE53FC3940850E8E587
:1004E7003F25E025E02409F81202C7120202E4259D
:1004F7003EF582E43401F583EFF0053E053F80D8F1
:10001E00EC4D6011E8497017ED33EC3304600DE4DC
:10002E00FCFFFEFD22E933E8330470F802026E1283
:10003E00023958046009E4CC248150062850090284
:10004E000278284003020275C0E0EB4A7044B98082
:10005E0006D0E0FB020264EF4E701CBD8008EBFF81
:10006E00EAFEE9FD80EBE98DF0A4FEE5F002010762
:10007E00E9CDF9EAFEEBFFEF89F0A4FCE5F0CE89BD
:10008E00F0A42EFFE435F0CD89F0A42DFEE435F07A
:10009E008067EF4E7005BD80D780C3EF8BF0A4ACA8
:1000AE00F0EE8BF0A42CFCE435F0F8EF8AF0A42CE3
:1000BE00E5F038FCE433CB8DF0A42CFCE5F03BF8F6
:1000CE00EE8AF0A42CFCE5F038F8E433CF89F0A4E6
:1000DE002CFCE5F038CF3400CE89F0A42FFFE5F0EC
:1000EE003EFEE433C98DF0A42EFEE5F039CD8AF044
:1000FE00A42FFFE5F03EFEE43DFD33D0E0FB5007BC
:10010E000BBB000F020278EC2CFCEF33FFEE33FE3C
:06011E00ED33FD0202506A
:10012400020278EC5D046005E85904700302026E73
:10013400120239580460F6EC4860F2EC7004FDFEDB
:10014400FF22C860DB2481C85009C39860025006AE
:100154000202759850CAF582E9294B4A7005AB82B0
:1001640002026475F0007C1A7880C3EF9BEE9AED6E
:1001740099400DC3EF9BFFEE9AFEED99FDE842F026
:10018400DC23ACF0D0E0FFD0E0FED0E0FDAB822079
:10019400E7101BEB60BAEC2CFCEF33FFEE33FEED03
:1001A40033FD020250E803F830E705C0F075F000B3
:1001B400EF2FFFEE33FEED33FD40B830E7C280AAE7
:1001C40075F020800E75F010800575F0087D007EB6
:1001D400007F003392D530D5031202B9EC334010BE
:1001E400EF33FFEE33FEED33FDEC33FCD5F0ED22BF
:0E01F400E5F0247EA2D513CC92E7CDCEFF22FB
:10020200EDD2E7CD33EC3392D524814006E4FFFEF4
:10021200FDFC22FCE4CFCECDCC24E0501174FF8053
:10022200EDC3CC13CCCD13CDCE13CECF13CF0470F0
:07023200F030D5DE0202B935
:10023900E9D2E7C933E833F892D5EDD2E7CD33EC0B
:0702490033FC5002B2D52284
:10025000EC30E7100FBF000C0EBE00080DBD00040F
:100260000BEB6014A2D5EB13FCED92E7FD2274FFBB
:10027000FCFDFEFF22E480F8A2D574FF13FC7D8014
:03028000E480EF28
:100340000204A7E493A3F8E493A34003F68001F228
:1003500008DFF48029E493A3F85407240CC8C333BE
:10036000C4540F4420C8834004F456800146F6DF8D
:10037000E4800B0102040810204080900577E47EA1
:10038000019360BCA3FF543F30E509541FFEE49382
:10039000A360010ECF54C025E060A840B8E493A349
:1003A000FAE493A3F8E493A3C8C582C8CAC583CA74
:1003B000F0A3C8C582C8CAC583CADFE9DEE780BE2C
:01059B00005F
:10028300C2D5EC30E709B2D5E4C39DFDE49CFCEE96
:1002930030E715B2D5E4C39FFFE49EFE1202DFC32D
:1002A300E49DFDE49CFC80031202DF30D507C3E428
:0602B3009FFFE49EFE2205
:0E02B900C3E49FFFE49EFEE49DFDE49CFC2256
:0C02C700E6FC08E6FD08E6FE08E6FF2263
:0C02D300ECF608EDF608EEF608EFF62257
:1002DF00BC000BBE0029EF8DF084FFADF022E4CC03
:1002EF00F875F008EF2FFFEE33FEEC33FCEE9DECCC
:1002FF00984005FCEE9DFE0FD5F0E9E4CEFD22ED12
:10030F00F8F5F0EE8420D21CFEADF075F008EF2F5B
:10031F00FFED33FD4007985006D5F0F222C398FD4C
:05032F000FD5F0EA22E9
:00000001FF
